:020000040800F2
:10000000A82000209D010008EF220008D52000084C
:10001000ED220008390B0008EF280008000000005E
:1000200000000000000000000000000005010008C2
:100030007D0D0008000000004901000801260008AD
:10004000B7010008B7010008B7010008B7010008B0
:10005000B7010008B7010008B7010008B7010008A0
:10006000B7010008B7010008B7010008B701000890
:10007000B7010008B7010008B7010008B701000880
:10008000B7010008B7010008B7010008B701000870
:10009000B7010008B7010008B7010008B701000860
:1000A000B7010008B7010008B7010008B701000850
:1000B000B7010008B7010008B7010008B701000840
:1000C000B7010008B7010008B7010008B701000830
:1000D000B7010008B7010008B7010008B701000820
:1000E000B7010008B7010008B7010008DFF810D019
:1000F00000F034FC00480047ED340008AFF3008006
:10010000A8200020224B19680868B0E8F00F80F39F
:100110000988BFF36F8F4FF0000080F311884EF015
:100120000D0E70470000000006480068006880F36C
:10013000088862B661B6BFF34F8FBFF36F8F00DFE1
:1001400000BF00BF08ED00E0EFF30980BFF36F8F41
:100150000F4B1A6820E9F00F106008B54FF05000FF
:1001600080F31188BFF34F8FBFF36F8F04F0DCFE75
:100170004FF0000080F31188BDE808401968086856
:10018000B0E8F00F80F30988BFF36F8F704700BFAE
:1001900028000020EFF305807047000006488047E4
:1001A00006480047FEE7FEE7FEE7FEE7FEE7FEE75C
:1001B000FEE7FEE7FEE7FEE791260008ED000008F7
:1001C000202A04DB203A21FA02F00021704721FAAC
:1001D00002F3D040C2F12002914008431946704713
:1001E00040EA01039B0703D009E008C9121F08C0B9
:1001F000042AFAD203E011F8013B00F8013B521E39
:10020000F9D27047D2B201E000F8012B491EFBD2AF
:1002100070470022F6E710B513460A460446194611
:10022000FFF7F0FF204610BDF0B480EA0102D40FC2
:100230004200B2EB410F02D20246084611464A0084
:1002400042D0C30DDDB2C1F3C752AD1A202D35DA4D
:10025000C1F3160141F4000204B15242C5F1200677
:1002600002FA06F12A411044B3EBD05F23D0C4B1A7
:10027000012DA0EBC35009DCF0BC4FF0004202EAB4
:10028000C352DBB200F5000000F082B9400000F17B
:10029000807000EBC350A0F1807040EAD17049003B
:1002A00009E0490841EAC071A0EBC35000F5000025
:1002B000400800EBC350F0BC00F061B9614201227C
:1002C00002EB4101001BF6E7F0BC704781F00041F2
:1002D000AAE780F00040A7E780EA010210B502F02B
:1002E0000043400022D04A001FD0010E01EB1261F2
:1002F000C0F35600C2F3560240F4000042F400027C
:10030000A0FB022000047F39140400D0401C50EAF6
:10031000124001D44000491EC2B20C0604EBD010BA
:10032000401C4008802A02D003E0002010BD20F0CD
:100330000100002900DA0020184310BD420005D05A
:10034000C0F3C7525242914201DC0020704700EBDB
:10035000C15070472DE9F04D81EA030404F0004BD1
:1003600021F0004514464FF0000A23F0004150EA06
:10037000050220D054EA01021DD0C5F30A570246F7
:10038000C5F31303C1F31300C1F30A5640F48015FB
:1003900043F48013A7EB0608101BD64608F2FD387D
:1003A00073EB050002D308F1010801E092185B41EC
:1003B000B8F1000F03DA00200146BDE8F08D0020FF
:1003C0004FF48011064684460EE0171B73EB0507B9
:1003D00005D3121B63EB050306434CEA010C4908E5
:1003E0004FEA300092185B4150EA0107EDD152EA22
:1003F000030012D082EA040083EA0501084305D015
:10040000101BAB4106D20122002306E000224FF070
:10041000004302E06FF0010253101AEB06004CEBB0
:10042000085110EB0A0041EB0B01BDE8F04D00F064
:10043000DDB870B521F0004303430CD0C1F30A5579
:100440000024D5EB040564EB0403D617AD1AB341C1
:1004500002DB0020014670BD201841EB025170BD47
:1004600096230022114600F093B820F00040C10D01
:10047000C0F3160040F400007F2901DA0020704725
:10048000962903DCC1F19601C8407047963988402F
:10049000704700F0004230F000400AD0C10D01F575
:1004A0006071C0F3160042EA0151C20840071143CF
:1004B000704700200146704701F0004330B421F03E
:1004C000004150EA010206D00A0DA2F56072C1F3A4
:1004D0001301002A02DC30BC00207047440F44EABC
:1004E000C104C100E01830BC00EBC25000F047B8B6
:1004F00030B50B46014600202022012409E021FAF4
:1005000002F59D4205D303FA02F5491B04FA02F5F0
:100510002844151EA2F10102F1DC30BD2DE9F05F87
:100520000546002092469B46884606468146402462
:100530001BE02846414647462246FFF741FE534608
:100540005A46C01A914110D311461846224600F06F
:1005500017FA2D1A67EB01084F46224601200021A9
:1005600000F00EFA17EB00094E41201EA4F1010421
:10057000DFDC484631462A464346BDE8F09F002965
:10058000A8BF7047401C490008BF20F00100704719
:1005900010B4B0FA80FC00FA0CF050EA010404BF79
:1005A00010BC704749B1CCF1200421FA04F411FACF
:1005B0000CF118BF012121430843A3EB0C01CB1D13
:1005C0004FEA00614FEA102042BF002010BC704784
:1005D00000EBC35010440029A4BF10BC7047401C5E
:1005E000490008BF20F0010010BC704710B5141E70
:1005F00073F1000408DA401C41F1000192185B41DC
:100600001A4301D120F0010010BD2DE9F04D9246B2
:100610009B4611B1B1FA81F202E0B0FA80F22032C9
:10062000904600F0ADF904460F4640EA0A0041EA60
:100630000B0153465A46084313D0114653EA0100B2
:1006400019D0C8F140025046FFF7BAFD05460E46E4
:1006500050465946424600F093F9084305D0012020
:1006600004E020463946BDE8F08D0020054346EA07
:10067000E0762C4337430A986305E40AA0EB0800B0
:100680000022FD0A44EA47540A3002D50020014600
:10069000E9E7010510196941DDE9084500196941DB
:1006A000BDE8F04DA2E72DE9FE4F804681EA030048
:1006B000C00F0C46009021F0004123F00045B8EB3C
:1006C0000200A94105D24046214690461C460B46F1
:1006D000024623F00040104347D0270DC7F30A001D
:1006E000C3F30A510290401A019040286BDAC3F319
:1006F000130040F4801B0098924620B10023D2EBF7
:10070000030A63EB0B0B01985946C0F140025046B7
:1007100000F036F906460D4650465946019A00F05B
:100720003EF910EB08006141002487EA115284EA87
:10073000E7731A4340D0009A62B3019A012A4FEA44
:10074000075215DC001B61EB02014FF0004202EA88
:100750000752CDE90042001C41F5801132462B467C
:10076000FFF753FF03B0BDE8F08F40462146F9E79D
:10077000001B61EB0201001C41F5801300185B4176
:100780002018A2F5001747EB030140EAD570B6190F
:100790006D4111E06D084FEA360645EAC0754FEA33
:1007A0000752001B61EB0201001C41F58011490852
:1007B0004FEA30000019514132462B4603B0BDE8E4
:1007C000F04FFFF713BF0098012240000023D0EB49
:1007D000020263EBE073009821464FEAE074B8EB45
:1007E000000061EB0401E9E783F000435BE781F07F
:1007F000004158E72DE9FE4F81EA030404F000446C
:1008000021F0004100944FF0000B23F0004350EA28
:1008100001045ED052EA03045BD0C3F30A54C1F36F
:100820000A552C44A4F2F3340194A0FB0254C1F302
:10083000130141F48011C3F3130343F4801301FB4C
:10084000024400FB034E840A970A44EA815447EAB3
:100850008357A4FB076802958D0A05FB07854FEABD
:10086000932C04FB0C542705029D4FEA065847EAD7
:100870001637B5EB08056EEB070C870E920E47EAAC
:10088000811742EA8312A7FB0201B6EB0B0164EB6E
:1008900000042B0D43EA0C335E1844EB1C50DA467F
:1008A0005146E7FB0201C5F313044FEA0B3343EA59
:1008B00014534FEA0432019C43EA0603A4F10C04EA
:1008C0000294009CCDE900B4FFF79FFE03B0BDE8A1
:1008D000F08F00200146F9E70EB5C10F80EAE07005
:1008E0000844CA07002140F233438DE80E000A464F
:1008F0000B46FFF78AFE03B000BDC1F30A52C1F3F5
:10090000130140F2FF3341F480119A4202DA0020D1
:100910000146704740F233439A42A2F2334202DC6E
:100920005242FFF74DBC00F02BB8000030B5041E5A
:1009300071F1000404DB4FF00044404264EB01011C
:10094000141E73F1000405DB1C464FF000435242B5
:1009500063EB0403994208BF904230BD064C074D3B
:1009600006E0E06840F0010394E80700984710347F
:10097000AC42F6D3FFF7BEFBB8600008D8600008B1
:10098000202A04DB203A00FA02F10020704791404F
:10099000C2F1200320FA03F3194390407047202A44
:1009A00006DBCB17203A41FA02F043EAE07306E097
:1009B00041FA02F3D040C2F12002914008431946A7
:1009C00070472DE9F04D00231A461B1A8A4103DBBC
:1009D00000200146BDE8F08DC1F30A52C1F31301B6
:1009E00041F480154FF0000BD10702D100186D4182
:1009F000521E0027044640F2FF11384601EB620AFE
:100A00003E468046024600204FF48011FFF7D8FB97
:100A1000C2197141BB1846EB0100B4EB030C75EB36
:100A2000000C04D3E41A65EB000517460E462419A2
:100A300008F101006D4180463428E3DDF91946EBE9
:100A40000600091BA84103D24FF0FF32134601E014
:100A5000002213461BEB070046EB0A51BDE8F04DA0
:100A6000FFF7C4BD70B5044600688168C943C90773
:100A700017D1816821F00101816000F04DFD05462C
:100A80000AE000BF00F048FD401B022804D920689E
:100A90008068C043C00706D020688068C043C00794
:100AA000F0D0002070BDA06A40F01000A062E06AA3
:100AB00040F00100E062012070BD0000F8B50026A2
:100AC0000446009600688168C943C9072DD0816833
:100AD00041F001018160164816490068B0FBF1F051
:100AE00000E0401E00900028FBD100F015FD0546F7
:100AF00016E000BF00F010FD401B022810D920684E
:100B00008068C043C0070BD0A06A40F01000A0620C
:100B1000E06A40F00100E06284F824600120F8BD42
:100B200020688068C043C007E4D10020F8BD000001
:100B30001400002040420F00FEE7000001221103D4
:100B4000014800F0E4BC0000000C014000224FF41A
:100B50008051014800F0DBBC000C014010B5094891
:100B6000094900780978084307D0FFF7EFFF07A18C
:100B7000BDE81040084802F077BDFFF7DFFF07A18E
:100B8000F6E70000000000200100002042555A5AFC
:100B900045525F4F4E0D0A002401002042555A5A1B
:100BA00045525F4F46460D0A0000000070B51848D8
:100BB0000024016821F00F010160016841F0080183
:100BC00001608515061F04E0641CE4B2012000F0FA
:100BD000D7F82946304600F095FC10B1642CF3D3C9
:100BE0000FE0642C0DD2002404E0641CE4B2012068
:100BF00000F0C6F82946304600F084FC18B1642C99
:100C000004D3012070BD642CEFD3FAE7002070BD3F
:100C10000408014030B585B0002002901148816978
:100C200041F00401816180694FF4807400F0040098
:100C300004900120CDE9004003200B4D039069464C
:100C4000284600F06FFB01222146284600F05FFC99
:100C5000064801F0B5F800F071F8FFF7A7FF05B0FE
:100C600030BD00000010024000080140DC00002000
:100C700070B500244FF48075134E04E0641CE4B298
:100C8000012000F07DF82946304600F03BFC08B119
:100C9000642CF3D3002404E0641CE4B2012000F0CF
:100CA0006FF82946304600F02DFC08B9642CF3D3C8
:100CB000282000F065F82946304600F023FC002883
:100CC00000D0012070BD00000008014070B5002078
:100CD00004464006050EFFF7CBFF641C2843E4B230
:100CE000082CF6D370BD00002DE9FC410D460646E8
:100CF00000F024F8FFF75AFFE8B900244FEA0D0787
:100D0000FFF7E4FF3855641CE4B2052CF8D39DF8D6
:100D100000109DF801009DF803300A189DF80200AC
:100D200003441A449DF804309A4204D1297030706B
:100D30000020BDE8FC810120FBE7000070B50E48F3
:100D4000016821F00F010160016841F003010160B9
:100D50008415051F00222146284600F0D8FB1420E8
:100D600000F0CEFA01222146284600F0D0FBBDE873
:100D700070401E2000F004B80408014070470000D5
:100D800070B54FF6FA75094E281A84B2306844627D
:100D9000304601F015F8306801E0416A8CB2AC428F
:100DA000FBD3BDE87040014801F032B8DC00002000
:100DB00072B6FEE7F8B500250446009590F82400C9
:100DC00001280BD0012084F824002046FFF74AFEBA
:100DD0002046FFF773FE060002D050E00220F8BD67
:100DE000A06A20F4885040F00200A062022000F0C7
:100DF00029FC25490968B1FBF0F0400000E0401EE5
:100E000000900028FBD12068816841F008018160D2
:100E100000F082FB074608E000F07EFBC01B0A28BA
:100E200003D920688068000715D42068806800070F
:100E3000F2D42068816841F00401816000F06CFB0D
:100E4000074612E000F068FBC01B0A280DD9206895
:100E50008068400709D5A06A20F0020040F0100029
:100E6000A06284F824500120F8BD20688068400703
:100E7000E8D4A06A20F0020040F00100A06284F8EB
:100E800024503046F8BD000014000020F8B50024BE
:100E9000009490F824202546012A12D0012280F8DF
:100EA00024204A681F23072A0DD20668776B521E3A
:100EB00002EB820293409F430B6893401F4377638A
:100EC00019E00220F8BD06680D2A0AD2376BD21F3E
:100ED00002EB820293409F430B6893401F433763AA
:100EE00009E0F76A0D3A02EB820293409F430B68D8
:100EF00093401F43F7620A68072306680A2A0AD349
:100F0000F7680A3A02EB420293409F438B68934092
:100F10001F43F76008E0376902EB420293409F43AA
:100F20008B6893401F4337610A68102A01D0112A49
:100F300020D1124B02689A4217D193681B0219D430
:100F4000936843F4000393600968102912D10C4997
:100F50000C4A0968B1FBF2F101EB8101490000E0A4
:100F6000491E00910029FBD104E0816A41F0200173
:100F70008162012480F824502046F8BD00240140FD
:100F80001400002040420F000068C06C7047000051
:100F90002DE9F0414FF0000704003D467ED0A06AE5
:100FA000002628B9E66284F82460204600F07EF826
:100FB0002046FFF757FDA16AC90600D420B1A06AF8
:100FC00040F01000A06269E0A16A21F4885141F06C
:100FD0000201A1626268E169237B0A4347EA430197
:100FE0000A43A1684FF48077B94209D0012907D09C
:100FF0005FF0000194F814C0BCF1010F02D00AE0C8
:101000003946F7E7F3B1A36A43F02003A362E36A2A
:1010100043F00103E3622368D3F804C02CF4694C65
:101020004CEA010CC3F804C021688B68DFF870C07B
:1010300003EA0C0313438B60A168B9420BD001296A
:1010400009D00CE0DFF85CC0A3690CEB43330B4321
:1010500043F40061DFE7218A0D05A5F580152168BD
:10106000CB6A23F470032B43CB62216889680E4B53
:101070001940914208D1E662A16A21F0020141F0D3
:101080000101A162BDE8F081A06A20F0020040F0F9
:101090001000A062E06A40F00100E0620120F1E788
:1010A000FDF7E1FF00E0FFFFFE0E1FFF00B585B07A
:1010B0000021009101910291039100680E4988423C
:1010C00018D10E48816941F400718161816901F490
:1010D00000710491816941F0040181618069694670
:1010E00000F00400049002200090032001900448C6
:1010F00000F018F905B000BD0024014000100240C6
:10110000000801402DE9F84300270D4604460097EA
:1011100000F002FA804620688168C90508D5A06AF7
:1011200040F02000A06284F824700120BDE8F8831C
:101130004168C90503D4C06A10F4700F2AD0022098
:1011400000F080FA3B490968B1FBF0F620680369BA
:1011500039490B424FEA61014FEAA1121FD1C3681E
:101160004FEA611C13EA0C0F19D103690B4225D118
:10117000C068104222D1142023E0681C0AD02DB18F
:1011800000F0CAF9A0EB0800A84203D92068006863
:10119000800725D5206800688007EED52DE003691B
:1011A0000B4202D1C168114206D0026923490A42AA
:1011B00006D1C068084203D1542002E0292000E093
:1011C000FC204643009816E0681C11D02DB100F0B9
:1011D000A3F9A0EB0800A8420AD90098B04207D2B0
:1011E000A06A40F00400A06284F8247003209DE708
:1011F0000098401C0090B042E6D321686FF01200C6
:101200000860A06A40F40070A06220688068C0F3A3
:10121000424007280CD1207B50B9A06A20F480708E
:10122000A062A06AC00403D4A06A40F00100A062DA
:1012300000207BE7140000202449922449922400D6
:1012400070B5044690F8240001280DD0012084F8E0
:1012500024002046FFF732FC02004FF0000005D0CA
:1012600084F82400104670BD022070BDA16A40F2CF
:101270000123994341F48071A1621F4D23681F49E6
:10128000AB4218D10E6816F4702F14D0A66A46F43B
:101290008016A6620E68760505D5A66A26F4005665
:1012A00046F48056A662A66AF6040AD5E66A26F0D7
:1012B0000606E66206E0A66A26F48016A6625E6866
:1012C000E9E7E06284F824006FF00200186020680B
:1012D0008368C3F34243072B05D1A84208D10968AC
:1012E00011F4702F04D0816841F480118160B9E756
:1012F000816841F4A001F9E700280140042401407D
:1013000070B5044600F008F90546601C02D0044898
:101310000078044400F000F9401BA042FAD370BDED
:10132000080000202DE9F84FDFF8B8910024A9F15A
:10133000040B23460F2709F1040AABF1040EC9E0A0
:101340000125A5402A40AA427DD1674ED1F804C0AC
:10135000ACEB0608B44532D014DCBCF1030F3AD034
:1013600009DCBCF1000F2AD0BCF1010F1CD0BCF18C
:10137000020F31D11DE0BCF1110F17D0BCF1120FDB
:101380002AD119E0B8F5881F19D006DCB8F5803FDE
:1013900015D0B8F5801F1FD111E0B8F5001F0ED091
:1013A000B8F5041F18D10AE0CB6815E0CB681B1D07
:1013B00012E0CB6808330FE0CB680C330CE08B688D
:1013C0002BB1012B4FF0080303D0456104E0042347
:1013D00002E0056100E00023FF2A01D8064601E093
:1013E00000F104064FEA840501D9A5F12005D6F8DD
:1013F000008007FA05FC28EA0C0803FA05F548EA1C
:101400000508C6F800804D68ED0062D5374DAE691D
:1014100046F00106AE61AD6924F0030605F0010552
:101420000095334D06EB050CDCF80850A607360F87
:1014300007FA06F825EA0805DFF8B880404503D129
:101440004FF0000817E044E0DFF8AC80404502D1DF
:101450004FF001080FE0DFF8A480404502D14FF0C3
:10146000020808E0DFF89880404502D14FF00308F9
:1014700001E04FF0040808FA06F848EA0508CCF83D
:1014800008804D68D9F80060ED024D4601D516433D
:1014900000E096432E604D68DAF80060AD025546D4
:1014A00001D5164300E096432E604D68DBF80060DE
:1014B000AD035D4601D5164300E096432E604D68AE
:1014C000DEF80060ED03754601D5164300E0964353
:1014D0002E60641C0D682A46E5407FF431AFBDE8FC
:1014E000F88F0000080401400000111000100240B5
:1014F0000000014000080140000C014000100140C4
:10150000001401408068084000D0012070470AB1F3
:10151000016170470904FBE70148806870470000DB
:1015200008000020024881680278114481607047F9
:1015300008000020074810B5016841F01001016063
:10154000032000F06DF80F2000F006F800F024F8FA
:10155000002010BD0020024070B50D4D04464FF430
:101560007A712878B1FBF0F00A490968B1FBF0F014
:1015700000F09CFB48B9102C07D200222146501ED7
:1015800000F02EF800206C6070BD012070BD0000DE
:1015900008000020140000200F4808B5816941F0C0
:1015A00001018161816901F001010091C16941F08E
:1015B0008051C161C069002200F0805000900F216D
:1015C000901E00F00DF80548416821F0E06141F0FF
:1015D0000071416008BD00000010024000000140A1
:1015E000F0B40E4B1B680C46C3F30223C3F107058E
:1015F000042D00D90425191D072901D2002300E07C
:10160000DB1E012606FA05F1491E214099409E4045
:10161000761E16403143F0BC01F0ACB90CED00E091
:10162000064900F0070208684FF6FF03184040EA39
:101630000220034A10430860704700000CED00E0F0
:101640000000FA0510B501460020234C012922D0E4
:10165000022939D010291DD161682268D20119D51B
:101660001E48C1F38342C903805C0AD561681B4AE6
:10167000C1F34041921E515C194AB2FBF1F148435B
:1016800001E0184948436168490203D4400003213E
:10169000B0FBF1F010BD226AC2F30121012903D190
:1016A000920701D5C80310BD022905D1626A9207CD
:1016B00002D549F6404010BD0329FCD121688903B9
:1016C000F9D54FF2244010BD00F02AF96168C1F34A
:1016D0008131491C4900DBE70010024070590008C5
:1016E00000127A0000093D002DE9F8430546007814
:1016F000354CC00754D0E0690026C00008D4E0692A
:1017000040F08050E061E069012600F080500090D8
:101710002E480168C90512D40168804641F48071E1
:101720000160FFF7F9FE074605E000BFFFF7F4FE92
:10173000C01B642823D8D8F80000C005F6D5206A5D
:1017400010F4407021D0A98801F4407181421CD06E
:10175000206A1F49012220F440700A6000220A60BA
:101760002062C00711D0FFF7D7FE074641F2883844
:1017700008E000BFFFF7D0FEC11B414502D903209E
:10178000BDE8F883206A8007F4D5206A696820F4F0
:101790004070084320621EB1E06920F08050E06193
:1017A0002878800705D56068A96820F44040084380
:1017B00060602878C00605D56068E96820F480007C
:1017C000084360600020DBE700100240007000402A
:1017D000400442422DE9F0470F46050061D0434ED8
:1017E000306800F00700B84209D2306820F00700E6
:1017F00038433060306800F00700B84251D12868A3
:101800003B4C810712D5400703D5606840F4E06087
:1018100060602878000703D5606840F4605060601D
:101820006068A96820F0F000084360602878C0076D
:1018300028D06868012810D02168022810D08907B4
:1018400000292EDA616821F0030101436160FFF78E
:1018500063FE804641F288390DE021688903EFE795
:101860008901EDE7FFF758FEA0EB0801494502D9D1
:101870000320BDE8F0876068696800F00C00B0EBF9
:10188000810FEFD1306800F00700B8420BD9306803
:1018900020F0070038433060306800F00700B8429D
:1018A00001D00120E5E72878400705D56068E968A0
:1018B00020F4E060084360602878000706D560687F
:1018C000296920F4605040EAC100606000F038F8F7
:1018D0006168084AC1F30311515CC84006490860B9
:1018E00006480068FFF738FE0020C2E700200240EB
:1018F0000010024080590008140000200C00002055
:101900000448054900684968044AC1F30221515C52
:10191000C840704714000020001002409059000891
:101920000448054900684968044AC1F3C221515C72
:10193000C840704714000020001002409059000871
:101940000E4A51680E4801F00C03042B11D0082BED
:101950000FD10C48C1F38343C903C05C0AD5516859
:10196000084AC1F34041921E515C054A5043B0FB06
:10197000F1F07047044948437047000000100240EE
:1019800000127A005E59000800093D002DE9F84F69
:10199000040070D02078C04DC00749D06868C0F3FB
:1019A0008100012807D06868C0F38100022809D1AE
:1019B0006868C00306D52868800339D560680028A8
:1019C000E7D035E06068B0F5803F0BD010B1B0F5DE
:1019D000A02F11D0286820F480302860286820F4D7
:1019E000802002E0286840F480302860606890B170
:1019F000FFF792FD06460AE0286840F48020286040
:101A0000F0E700BFFFF788FD801B642873D82868C3
:101A10008003F7D50CE0FFF77FFD064605E000BF29
:101A2000FFF77AFD801B6428F0D828688003F7D47C
:101A300020789A4E80074FF001094FF0000839D501
:101A4000686810F00C0F07D06868C0F381000228A6
:101A500009D16868C00306D42868800714D52069B6
:101A6000012808D110E02069B0B1C6F80090FFF756
:101A700053FD074605E00AE1FFF74EFDC01B0228B3
:101A8000C4D828688007F7D52868616920F0F80075
:101A900040EAC10028600DE0C6F80080FFF73CFD79
:101AA000074604E0FFF738FDC01B022823D828684A
:101AB0008007F7D4207800072CD57948A169D9B1DF
:101AC000C0F80090FFF728FD074604E0FFF724FD6B
:101AD000C01B02280FD8686A8007F7D571484FF4F9
:101AE000FA510068B0FBF1F0009000BF0098411E71
:101AF0000091FAD20EE080E0C0F80080FFF70CFD04
:101B0000074604E0FFF708FDC01B022875D8686A85
:101B10008007F7D42078400760D5E8690027C00027
:101B200008D4E86940F08050E861E869012700F0D6
:101B3000805000905C480168C90513D40168834651
:101B400041F480710160FFF7E7FC824606E000BFC8
:101B5000FFF7E2FCA0EB0A0064284ED8DBF8000097
:101B6000C005F5D5E06801280AD008B1052813D0D2
:101B7000286A20F001002862286A20F0040002E0B0
:101B8000286A40F001002862E06841F2883B98B181
:101B9000FFF7C2FC82460BE0286A40F0040028628E
:101BA000EEE700BFFFF7B8FCA0EB0A0159455AD891
:101BB000286A8007F6D50CE0FFF7AEFC824605E008
:101BC000FFF7AAFCA0EB0A0159454CD8286A800708
:101BD000F6D41FB1E86920F08050E861E06988B36D
:101BE0006968C1F38101022944D00228C6F86080E7
:101BF00004D0FFF791FC044638E034E0FFF78CFC9A
:101C0000074604E0FFF788FCC01B02282BD8286891
:101C10008001F7D4206AB0F5803F05D16868A168DB
:101C200020F4003008436860D4E90801084369687B
:101C300021F4741108436860C6F86090FFF76CFCEB
:101C4000044606E025E000BFFFF766FC001B022803
:101C500009D828688001F7D51BE000BFFFF75CFCBE
:101C6000001B022802D90320BDE8F88F28688001F4
:101C7000F4D40EE00128F7D06868226A00F48031BD
:101C8000914204D1616A00F47010884201D00120B1
:101C9000EAE70020E8E700000010024000004242AE
:101CA00080044242140000200070004010B5401E25
:101CB000B0F1807F01D3012010BD4FF0E0246061BE
:101CC0000F21601700F056FE0020A0610720206160
:101CD000002010BD70B590F83C20012A26D00124C8
:101CE00080F83C40022280F83D2003685A689D68D5
:101CF00022F070060A6832435A600D4B02689A421D
:101D000008D0B2F1804F05D00A4B9A4202D00A4B5C
:101D10009A4204D1496825F080031943916080F804
:101D20003D40002180F83C10084670BD022070BD87
:101D3000002C0140000400400008004010B50400E1
:101D400003D094F83D0010B107E0012010BD002041
:101D500084F83C00204600F01FF8022084F83D0083
:101D6000211D206800F096FC012084F8460084F8CC
:101D70003E0084F83F0084F8400084F8410084F875
:101D8000420084F8430084F8440084F8450084F855
:101D90003D00002010BD000008B5006806498842DB
:101DA00008D10648816941F400618161806900F4CD
:101DB0000060009008BD0000002C014000100240AF
:101DC00090F83D10012901D001207047022180F8D0
:101DD0003D1000680B49884208D0B0F1804F05D013
:101DE0000949884202D00949884204D1816801F03A
:101DF0000701062903D0016841F0010101600020BC
:101E000070470000002C0140000400400008004022
:101E100001680A6A41F211131A4207D10A6A9B103B
:101E20001A4203D10A6822F001020A60012180F8F7
:101E30003D100020704770B5044690F83C00002526
:101E4000012817D0012684F83C60022084F83D0068
:101E50002068826822F0770222F47F42826008685C
:101E6000502838D00DDC20284FD005DC90B3102846
:101E700011D14AE0022070BD302846D040280AD156
:101E80003BE060282FD070280DD0B0F5805F03D0E4
:101E9000B0F5005F12D0012584F83D60002084F881
:101EA0003C00284670BDCB68D1E90121206800F0D4
:101EB0002DFC2068816841F0770109E0CB68D1E909
:101EC0000121206800F022FC2068816841F48041F3
:101ED0008160E1E719E0CA684968206800F028FCE1
:101EE0005021206806E0CA684968206800F031FC8B
:101EF0006021206800F014FCCEE7CA6849682068B9
:101F000000F016FC40212068F4E7226801461046E4
:101F1000F0E770B5040004D094F84100002510B13A
:101F200006E0012070BD84F84050204600F024F8FF
:101F3000242084F841002068C16821F40051C16068
:101F4000204600F03FFC2068016921F490410161C6
:101F50002068416921F02A0141612068C16841F48B
:101F60000051C1606564202084F8410084F842007B
:101F70006563002070BD000070B586B00024009439
:101F800001940294039403682648254E02210322FB
:101F90000515B3421ED1836943F48043836183698D
:101FA00003F480430493836943F0040383618069ED
:101FB0001D4E00F0040004900802CDE900010392D8
:101FC00069463046FFF7AEF9CDE900546946304620
:101FD000029420E0154EB3421FD1C36943F480231D
:101FE000C361C36903F480230493836943F0080346
:101FF00083618069CDE9005100F00800CDE903203C
:102000000B4D69462846FFF78DF9E814CDE9000429
:10201000694628460294FFF785F906B070BD0000B6
:102020000038014000100240000801400048004014
:10203000000C01402DE9F843044690F84100984611
:1020400016460D46202802D00220BDE8F88385B14F
:102050007EB100206064212084F84100FFF75CFA23
:10206000A6848146E684A0682027B0F5805F02D070
:1020700003E00120E9E7206910B12E4600250EE0BB
:1020800000260CE08021204600F0F8FBA8B9C6B17C
:1020900016F8010B21684860E08C401EE084E08C5B
:1020A0004B464FF00002CDF800800028EAD14FF0F7
:1020B0004001204600F0E2FB40B184F8417003206B
:1020C000C3E735F8020BC0F30800E3E784F841707A
:1020D0000020BAE7FEE700003EB500241048009457
:1020E000019402940D498460016004730475012514
:1020F00005614FF460214460C161FEF749FF08B1FA
:10210000FEF756FE0095CDE9015469460448FEF7F6
:10211000BDFE002801D0FEF74BFE3EBD002401406D
:10212000AC00002010B5044A0021044801F072FB05
:102130000349086010BD000038590008F92500085F
:10214000040000202DE9F04385B000262E480096BB
:10215000019602960396816941F0200181618169AF
:1021600001F020010491816941F0040181618169DC
:1021700001F004010491816941F0080181618069E5
:10218000DFF8889000F008004FF484570490012293
:1021900039464846FFF7BBF900224FF450714846D4
:1021A000FFF7B5F90124DFF86880CDE90046022584
:1021B000694640460295FFF7B5F8CDE900746946D7
:1021C0004846CDE90245FFF7ADF82002CDE900060B
:1021D000694640460296FFF7A5F840208DE8310099
:1021E000694648460395FFF79DF84FF4407000900C
:1021F00001AA112082E8310069464846FFF792F8AB
:1022000005B0BDE8F083000000100240000C014062
:102210000008014010B586B00024174800940194CE
:102220000294039404941349059401604721C0E982
:1022300001144FF6FF71C0E9031444618461FFF794
:102240007DFD08B1FEF7B4FD4FF480500090694663
:102250000948FFF7F0FD08B1FEF7AAFD049404A9B0
:1022600005480594FFF736FD002801D0FEF7A0FDD4
:1022700006B010BD002C0140DC0000200C4810B559
:102280000A4901604FF4E1314160002181600C2274
:10229000C160C0E904128161C161FFF73AFE002804
:1022A00003D0BDE81040FEF783BD10BD00380140EB
:1022B000240100200C4810B50A4901604FF4E131B7
:1022C0004160002181600C22C160C0E9041281617B
:1022D000C161FFF71EFE002803D0BDE81040FEF7E5
:1022E00067BD10BD004800406C010020FEE7FEE71E
:1022F00070B500240021204600F0E3F800250020FE
:1023000000F069F96D1CEDB2802DF8D3641CE4B2C5
:10231000082CEFD370BD000010B5FFF713FF064C7B
:10232000012211022046FFF7F2F820460122BDE803
:1023300010405102FFF7EBB8000C01402DE9F047C7
:10234000164E002407464FF080084FF40079B5156B
:1023500028FA04F0384201D0012200E00022494668
:102360003046FFF7D4F8012229463046FFF7CFF870
:10237000002229463046FFF7CAF8641CE4B2082C54
:10238000E6D3012229463046FFF7C1F829463046F8
:10239000BDE8F0470022FFF7BAB80000000C01408A
:1023A00070B501220B4D540221462846FFF7AFF8C5
:1023B0000122160231462846FFF7A9F800222146DD
:1023C0002846FFF7A4F831462846BDE870400022B1
:1023D000FFF79DB8000C014070B50A4D4FF4007432
:1023E000002221462846FFF792F8012211022846D2
:1023F000FFF78DF821462846BDE870400122FFF71F
:1024000086B80000000C014010B500204FF47A722D
:102410000021491C9142FCD3401C9042F8D3FFF7A5
:102420007BFFAE2000F0C6F8D52000F0C3F8802076
:1024300000F0C0F8A82000F0BDF83F2000F0BAF886
:10244000D32000F0B7F8002000F0B4F8402000F0EE
:10245000B1F8A12000F0AEF8C82000F0ABF8DA2007
:1024600000F0A8F8122000F0A5F8812000F0A2F8F2
:10247000CF2000F09FF8D92000F09CF8F12000F068
:1024800099F8DB2000F096F8302000F093F8A420B3
:1024900000F090F8A62000F08DF88D2000F08AF86A
:1024A000142000F087F8AF2000F084F8BDE8104059
:1024B000FFF71EBF0246012000E05043491EFCD238
:1024C000704710B50C4640F0B00000F073F81020D3
:1024D00040EA141000F06EF804F00F00BDE8104060
:1024E00000F068B82DE9F0410746CE004000083EF4
:1024F000801E15464FF0FF38F1B2C0B2FFF7E1FF82
:102500001148002400EB05152819A0F5805090F81B
:10251000000E00F060F8641CE4B2082CF4D308EB61
:102520004700F1B2C0B2FFF7CCFF00242819A0F594
:10253000805090F8080E00F04EF8641CE4B2082CAD
:10254000F4D3BDE8F0810000985900082DE9F04768
:1025500000241D461646884681460A2713E0291B9B
:102560000A20491EFFF7A6FFB6FBF0F0B0FBF7F11B
:1025700007FB110208EB0400C1B248463032FFF7F6
:10258000B1FF641CE4B2AC42E9D3BDE8F0872DE9A9
:10259000F04115460E460746002406E03019C1B248
:1025A0003846FFF79FFF641CE4B22A5D002AF5D18C
:1025B000BDE8F08110B50446FFF7F2FE7820FFF782
:1025C000BDFE0020FFF7BAFE2046FFF7B7FEBDE8CC
:1025D0001040FFF701BF10B50446FFF7E1FE782079
:1025E000FFF7ACFE4020FFF7A9FE2046FFF7A6FE4E
:1025F000BDE81040FFF7F0BE012001F0CFF8FBE787
:1026000010B5FEF78FFF02F0E1FF012803D0BDE80F
:10261000104002F00FBD10BD30B593B028216846C0
:10262000FDF7F7FD14210AA8FDF7F3FD00250120B1
:102630000F9510951195010412958DE823000490D3
:102640004FF4E010CDE90810022407946846FFF724
:102650009DF908B172B6FEE70AA90F2081E83100A2
:102660004FF48060CDE90D0502210AA8FFF7B2F80A
:1026700008B172B6FEE74FF4004011900F940FA816
:10268000FFF732F8002801D072B6FEE713B030BD74
:1026900070470000F0B50268194B1A4C1A4D4FF004
:1026A0008047984205D0B84203D0A04201D0A8424A
:1026B00003D122F070064A683243984205D0B842EE
:1026C00003D0A04201D0A84203D122F44074CA68CA
:1026D00022434C6922F08002224302608A68C2626F
:1026E0000A688262984201D109690163012141614E
:1026F0000169C90703D0016921F001010161F0BD41
:10270000002C0140000400400008004010B584681F
:1027100042EA032224F47F440A432243826010BD2C
:10272000826822F070020A4342F00701816070471C
:1027300010B5036A046A24F001040462846924F079
:10274000F00444EA021423F00A020A43846102629C
:1027500010BD10B5036A046A24F010040462846991
:1027600023F0A00324F4704444EA023243EA011146
:102770008261016210BD01680C3151E8002F22F422
:10278000907241E80023002BF5D10168143151E823
:10279000002F22F0010241E80023002BF5D1016B4C
:1027A000012909D101680C3151E8002F22F01002F3
:1027B00041E80023002BF5D1202180F842100021B0
:1027C0000163704770B5044600680169E26821F44E
:1027D0004051114301612169A068084361690843C0
:1027E0002168CA6841F20C639A430243CA602068B8
:1027F0004169A26921F44071114341611E49206879
:10280000884202D1FFF78CF801E0FFF779F800EB7E
:10281000C00101EB0012606864218000B2FBF0F39C
:10282000B3FBF1F36FF018067343B2FBF0F5B2FBA4
:10283000F0F605EB8305322303EB0515B5FBF1F547
:10284000B6FBF1F605F0F00505EB0615B2FBF0F668
:10285000B2FBF0F0B0FBF1F06FF01802504306EB62
:10286000800003EB0010B0FBF1F0216800F00F00D6
:102870002844886070BD0000003801402DE9F8430D
:10288000984617460D460446089E24E0701C22D048
:10289000FEF742FEA0EB0800B0421AD8CEB1206885
:1028A000C168490717D5802D15D0402D13D0016878
:1028B000C94309070FD401680025406800902046ED
:1028C000FFF759FF0820606484F840500120BDE8FC
:1028D000F8830320FBE72068006835EA000004D095
:1028E0000020B842D2D00020F1E70120F9E7FEE74E
:1028F0000FB4084B10B504A902AA039800F098F988
:10290000044602A9002000F021FD204610BC5DF81D
:1029100014FB00004D3300087CB50C001D46164624
:10292000014601D0601E00E00020CDE90010064BFA
:102930006A462946304600F07BF9002C02D0009A06
:10294000002111707CBD000037330008490050EAB7
:10295000C12018BF04204A0D18BF40F0010040F20A
:10296000FF72B2EB515F08BF40F00200012808BFC0
:10297000052070470907090E002804DB00F1E0205C
:1029800080F80014704700F00F0000F1E02080F89C
:10299000141D70472DE9F0414F1E00EBC70104469E
:1029A000D1E9000115461E4637F006020DD02A4631
:1029B0003346FDF71FFF7F1E04EBC703D3E9002357
:1029C000FDF771FE37F00602F1D1022F25D0042F5A
:1029D00013D0062F18BFBDE8F0812A463346FDF715
:1029E00009FFD4E90A23FDF75EFE2A463346FDF7C8
:1029F00001FFD4E90823FDF756FE2A463346FDF7CA
:102A0000F9FED4E90623FDF74EFE2A463346FDF7CC
:102A1000F1FED4E90423FDF746FE2A463346FDF7CE
:102A2000E9FED4E90223FDF73EFE2A463346FDF7D0
:102A3000E1FED4E90023BDE8F041FDF734BE00001B
:102A40000022134610460149FDF784BC0000F03F08
:102A5000FDF729BE0022134610461146FDF77ABC49
:102A600040F2013200204FF0E041FDF7E2BC0000EF
:102A7000024A00201107FDF7DCBC000001FDFFFF4A
:102A800002E008C8121F08C1002AFAD17047704737
:102A9000002001E001C1121F002AFBD17047000095
:102AA0000149086070470000A80000202DE9FF5F81
:102AB00082B00021DDE90430020DDDF840B00343AF
:102AC00018D044F61050A2F2FF3242431514119868
:102AD00001281FD0A5EB0B00401C5FEA000A4FF055
:102AE00000064E4FDFF83891B046504615D5CAF172
:102AF000000413E0119801244AA3012801D16FEAD0
:102B00000B010298119AC0E90031C0E9024206B0F7
:102B1000BDE8F09FCBF10000DFE704460021404A0A
:102B2000491842EB0450CDE9001012E0E00707D04D
:102B300032463B4640464946FDF75CFE80468946A4
:102B400032463B4610461946FDF754FE06460F46F0
:102B50006410002CEAD1DDE90401DDE90023BAF1BB
:102B6000000F06DAFDF746FE42464B46FDF742FEF1
:102B700005E0FDF7EFFB42464B46FDF7EBFB044655
:102B80000E460022284BFDF7D1FE03D84FF0FF3050
:102B9000014607E00022254B20463146FDF783FD24
:102BA000FDF7ABFE102409E0002C0ADB0A2200230B
:102BB000FDF7B4FC039B30321A55641E50EA010243
:102BC000F2D1641C039AC4F111031444119A012A2E
:102BD00003D0012208430DD10AE0084304D00020AD
:102BE0004FF0110B119072E7A3EB0B056D1E0DE07A
:102BF0005B4504DD4FF0000205F1010504E003DA56
:102C00004FF00002A5F10105002AECD002981199BD
:102C1000C0E90231C0E9004579E700000000144036
:102C20000000F03F300000000000F0430000E03FF3
:102C30002DE9FF4F95B09A46884606460025EEE1FD
:102C4000252877D100242746F94A0121039400E082
:102C5000044316F8013F203B01FA03F01042F7D17C
:102C600030782A2811D06FF02F033078A0F130028D
:102C7000092A16D8039A44F0020402EB820203EBFD
:102C800042021044761C0390EFE758F8042B03929D
:102C9000002A03DA504244F40054039044F0020442
:102CA000761C30782E2816D116F8010F44F0040453
:102CB0002A280DD06FF02F023078A0F13003092BB5
:102CC00009D807EB870302EB4303C718761CF3E729
:102CD00058F8047B761C30786C280FD006DC4C2822
:102CE00017D068280DD06A2814D104E0742810D0B9
:102CF0007A280FD10DE044F400140AE044F4801463
:102D000001E044F440147278824202D104F5801448
:102D1000761C761C307866280BD013DC582877D0C8
:102D200009DC002875D04528F6D04628F4D047287D
:102D30001AD193E118E0632835D0642879D065284A
:102D400012D18BE1702873D008DC6728F1D0692894
:102D50006FD06E280DD06F2806D1ACE073282CD030
:102D6000752874D0782853D05246179990476D1C17
:102D700054E1C4F30250022809D003280DD0D8F83A
:102D8000001004280DD00D6008F1040846E1D8F8C1
:102D90000010EA17C1E90052F6E7D8F800100D80DC
:102DA000F2E70D70F0E718F8041B8DF80010002012
:102DB0008DF80100EB46012003E058F804BB4FF00A
:102DC000FF3061074FF0000102D40DE009F101016D
:102DD0008946B9420FDA8145F8DB1BF80910002952
:102DE000F4D108E009F1010189468142FADB1BF8C0
:102DF00009100029F6D103985346A0EB0907214694
:102E00003846179A00F080FA284400EB090507E0DD
:102E100044E008E10DE01BF8010B5246179990477A
:102E2000B9F10109F7D2534621463846179AF2E024
:102E300039E00A21C4F302524FF0000B0091022A3C
:102E400006D058F8040BC117032A09D00AE023E082
:102E500008F1070020F00702F2E80201904605E0C1
:102E600000B2C117042A01D140B2C117002906DA05
:102E70000A460021404261EB02012D2202E02205B8
:102E800004D52B228DF80420012203E0E20701D0B3
:102E90002022F7E7914657E00A2100E010214FF089
:102EA000000B00910BE010214FF0000B44F00404E4
:102EB0000827009103E008204FF0000B0090C4F3B6
:102EC0000252022A05D058F8040B0021032A08D028
:102ED00008E008F1070020F00702F2E8020190463E
:102EE00003E080B2042A00D1C0B24FF000092207EB
:102EF0002AD53278702A07D0DDF800C08CF0100C8B
:102F00005CEA0B0C05D00EE040228DF80420012273
:102F100008E050EA010306D030238DF804308DF824
:102F2000052002229146009B83F0080353EA0B031D
:102F30000AD150EA010201D1620705D530228DF88D
:102F400004204FF001097F1E3278582A04D039A29C
:102F50000C920CAA02920BE03BA2F9E75B46009AA6
:102F6000FDF7DCFA0C9B9B5C029A521E02921370D6
:102F700050EA0102F2D1029804A9081A00F1200BCC
:102F8000600702D524F4803400E001275F4502DDAC
:102F9000A7EB0B0000E0002000EB0B010090039872
:102FA0004944401A0390E00306D453462146179A39
:102FB000039800F0A9F90544002706E001A852464D
:102FC000C05D179990476D1C7F1C4F45F6DBE003F1
:102FD0000CD553462146179A039800F095F90544FD
:102FE00004E030205246179990476D1C0099481E06
:102FF00000900029F5DC08E002980299524600781A
:10300000491C0291179990476D1CBBF10001ABF16F
:10301000010BF1DC5BE100F065F90544761C3078CA
:1030200000287FF40DAE19B02846BDE8F08F0000EF
:10303000092801003031323334353637383961628E
:103040006364656600000000303132333435363752
:10305000383941424344454600000000600700D42F
:10306000062708F1070020F00700F0E80223804659
:1030700003F0004C5FEA0C0001D097A009E02005A6
:1030800001D596A005E0E00701D095A001E0AFF2E0
:103090004C001390307823F0004365280CD006DCF8
:1030A000452809D046281DD047287FD13BE0662817
:1030B00018D067287AD136E00021112F01DB1120CA
:1030C00000E0781CCDE9000104A90CA8FFF7EEFC94
:1030D000DDE90D010C9A4FF0000B07F10109109288
:1030E00000914EE04FF000400097CDE9011004A997
:1030F0000CA8FFF7DBFCDDE90D020C9B0F994FF0EC
:10310000000B91461093009211B9791C00EB010954
:10311000B7EB090003D4C0F1FF3B07F10109A9EBAC
:103120000700019042E0012F00DA01270021112F52
:1031300001DD112000E03846CDE9000104A90CA80A
:10314000FFF7B4FCDDE90D010C9A00914FF0000B84
:10315000B946109221070FD4009A4A4503DA9146E6
:1031600001E0A9F10109B9F1010F05DD109AA9F1FA
:103170000101515C3029F4D0B84202DA10F1040F99
:1031800003DA0121CDE9011010E0002803DC8344BB
:10319000A9EB000102E0411C494500DD8946A0EB96
:1031A0000B00401C01904FF000400290200705D416
:1031B0000198484502DB4FF0FF30019000208DF868
:1031C0004B0002980DF14B07B0F1004F25D00220C3
:1031D0000C902B200D90029800280CDA40420290AF
:1031E0002D200D9007E00A210298FDF781F930317A
:1031F000029007F8011D0C99481E0C900029F2DC82
:1032000002980028EFD1791E0D980870307800F0F0
:10321000200040F0450007F8020D11A8C01BC01D9A
:1032200002901398007800B1012000EB0901019889
:1032300001EBE071029801440398401A401E03908C
:10324000E00306D453462146179A039800F05CF831
:1032500005441398007818B15246179990476D1C91
:10326000E00323D553462146179A039800F04CF803
:1032700005441BE0BBF1000F07DB0098584504DD57
:103280001098179910F80B0001E01799302052465A
:10329000904701980BF1010B401E05F101050190CB
:1032A00004D12E205246179990476D1CB9F10001A8
:1032B000A9F10109DEDC05E017F8010B5246179968
:1032C00090476D1C0299481E02900029F4DC534679
:1032D0002146179A03989EE62D0000002B0000005F
:1032E000200000002DE9F041044600251E46174647
:1032F000880404D405E039462020B0476D1C641EC4
:10330000F9D52846BDE8F0812DE9F04104460025B5
:103310001E469046C80301D5302700E020278804C8
:1033200004D505E041463846B0476D1C641EF9D50A
:103330002846BDE8F0814A68002A06D00A68531C76
:103340000B6010704868401E486070470A68531C44
:103350000B601070704700000A4910B5481CFDF75B
:10336000C3FC28B1BDE8104007A10F4800F07CB9AC
:1033700004480EA103784278BDE810400A4800F0E6
:1033800073B90000180000204552524F52202D20E2
:103390004661696C656420746F20726561642044C5
:1033A000485431310D0A00002401002074656D700D
:1033B0003A25642C68756D693A25640D0A00000091
:1033C00070B5254D88B0287808B124A100E025A16A
:1033D0002648FFF78DFA264E40F6C4113068884221
:1033E00001D924A100E025A120481030FFF780FA80
:1033F0002448254900780978084301D0012400E0D9
:10340000002422480068FDF744F80CB120A200E037
:1034100021A2164B154C2D7810330DB11CA500E0E0
:103420001DA50DF1080C05948CE82300CDE90632AA
:103430001B4831681CA20078CDE9000119481D49DC
:1034400003781D48FFF754FA08B01B4ABDE87040E6
:103450001AA11B4800F008B924000020E69C89E46A
:10346000BABA0000E697A0E4BABA0000B40300209C
:103470001C000020E8B685E6A0870000E6ADA3E5C5
:10348000B8B800000000002001000020200000204B
:10349000747275650000000066616C736500000061
:1034A0001800002019000020536D6172745F486F8E
:1034B0006D65000024600008B401002025730A0037
:1034C0006C01002010B501210548FEF71BF80549E5
:1034D000054A012800D000200870107010BD0000BF
:1034E000000801402400002001000020FEF722F81F
:1034F000FFF792F8FEF726FEFEF7C0FEFEF78AFE03
:10350000FEF7EAFDFEF7D6FEFDF784FBFEF77CFF33
:10351000FEF7EEFE0D48FDF74DFC00F04DF9FEF70D
:1035200001FE00F05BF94FF47A7400BFFFF714FF5F
:10353000FFF7C8FF00F00CF800F0B0F8FDF70EFB45
:10354000FFF73EFF2046FDF7DBFEEFE7AC00002073
:103550002DE9F0412E48FDF773FE4FF0FF35294667
:103560002B48FDF7CFFD2B4C002840D02AA12F4837
:1035700000F07AF82EA12D48226800F075F8206836
:10358000FCF76EFFDFF8B8804146FCF7A5FE6FF050
:103590000B01FCF7D3FE0646FCF77BFF2A46FCF73F
:1035A00048FF07460D4631464046FCF78FFEFCF7C4
:1035B00070FF3A462B46FCF7CDFEFCF77DFFFCF78B
:1035C00068FF02460B461F481F49FCF7C3FE4FF039
:1035D00060421E4B00F064F9FCF76EFF60602268E9
:1035E00040F6C4131A499A4206D3012205E008485E
:1035F000FDF7CAFC2060BDE700220A70FCF749FF16
:10360000BDE8F04102460B4612A1084800F02CB874
:10361000AC0000201C0000206164635F726561647F
:103620005F6572726F720D0A0000000024010020B5
:103630006164635F76616C75653D2025640D0A00E9
:103640000000A040764F9E6A3A295340F0F4E43FD0
:103650000000002070706D5F76616C7565203D2004
:10366000252E660D0A0000000FB44FF4007130B52E
:10367000ADF5017D054686AB6846859AFFF74CF9A6
:10368000044682B2FF2369462846FEF7D3FC0DF5B7
:10369000017D204630BC5DF814FB000070B50121AF
:1036A00026A20846FEF773FF264802230621027869
:1036B0000120FEF74BFF24A209210120FEF767FF3E
:1036C000234802230F2102780120FEF73FFF21A2A9
:1036D00001210220FEF75BFF204C0423052102207C
:1036E0002268FEF733FF1EA201210320FEF74FFFE1
:1036F0001D4D2868FCF7B9FE02460423052103206E
:10370000FEF724FF1948007801280ED018A20121E5
:103710000420FEF73CFF2068B0F57A6F07D9164900
:103720002868884203DD15A202E017A2EFE718A27D
:10373000BDE8704009210420FEF729BF74656D7053
:103740003A0000001900002068756D693A00000019
:10375000180000206164633A000000001C00002093
:1037600070706D3A0000000020000020240000204E
:10377000202020202020200000007A455761726E12
:10378000696E67210000000050656F706C65210054
:1037900020202020202020200000000010B5EFF382
:1037A000058111B16FF0050403E0002408B101F0B8
:1037B00007FB204610BD0000EFF3058010B16FF04D
:1037C000050070470448016811B14FF0FF307047A1
:1037D00001210160002070477800002010B5EFF350
:1037E000058010B16FF0050010BD0848016801297F
:1037F00002D04FF0FF3010BD054A002182F8141DA1
:103800000221016001F044FB002010BD780000207F
:103810000BE000E02DE9FF414FEA01034FF0000506
:10382000EFF30581039549BB40B38027182100249D
:103830004AB3166806B1344696691EB13146761E03
:10384000382E02D21679F60703D0002004B0BDE866
:10385000F081566906B1B708D2F808C0BCF1000F74
:103860000DD0D5685C2D18D312693AB136B18DE808
:1038700006103A46214601F07EFE03900DE0D66820
:103880005EB912694AB903AACDE90012BAB221465B
:1038900001F044FE012800D003950398D6E700000C
:1038A0002DE9F04D1D460C4698B0174621F0004119
:1038B00023F00043002814BF4FF0010C4FF0000C20
:1038C0000CEB440CFE4A0CEB02064FEA620C664518
:1038D0002BD33E0018BF012606EB45061644F94AD5
:1038E000964222D3F84A53EA070C02D0944205D1FB
:1038F00048B918B000201146BDE8F08D002808BF77
:103900004FF0000C01D04FF0010C0CEB440212F50B
:10391000001F0AD8002F14BF4FF0010C4FF0000C0D
:103920000CEB450212F5001F07D918B03A462B469A
:103930002146BDE8F04DFFF78BB80022DFF88CA3DD
:10394000002CB8BF534526DADFF884C36345A8BF0F
:10395000022220DADFF870C39C451CDCDFF874C358
:103960000CEB235CBCF1140F08DDCCF1340627FA14
:1039700006FC0CFA06F6BE420DD108E05FB9CCF1A8
:10398000140623FA06FC0CFA06F69E4203D10CF04C
:103990000102C2F1020251EA000C19D1002D17DA1E
:1039A000002C18BF022A01D0012A07D00220FFF7FD
:1039B00077F818B0BDE8F04DFFF742B80220FFF7E6
:1039C0006FF8FFF73DF818B081F00041BDE8F08DC9
:1039D000B7F1000C6CD1534525D104F1804212F5AA
:1039E000801201BF00280020B74918B008BFBDE809
:1039F000F08DB548884207DC002DA1BF60462946FE
:103A000018B0BDE8F08D07E0281E05DA80F000410F
:103A100018B06046BDE8F08DAF497944D1E90001A6
:103A200018B0BDE8F08DDFF8A0C2634525D1002DA8
:103A30001FDA19B1514512D1D8B909E0002840F078
:103A4000EC82A24A214618B062F31E01BDE8F08D57
:103A50000020214618B060F31E01BDE8F08D08DAA1
:103A600018B02346BDE8F04D024600206146FCF741
:103A700071BC18B02146BDE8F08D514518DAB5F19A
:103A8000804F0DD0A5F1005CBCF1FF5C10D1B4F10A
:103A9000000C0DDB18B06146BDE8F04D01F036B802
:103AA000234618B00246BDE8F04D1946FCF7A2BE09
:103AB000060024F0004C3BD1D9B1514533D1002C44
:103AC00006DD002DA1BF0020514618B0BDE8F08DE5
:103AD000002C01DD002D1BDB002C13DA002D11DB87
:103AE000012A4FF0000014BF78497C4918B0BDE8A6
:103AF000F08D022A18BF002C0AD0012A08D1002C10
:103B000006DA0AE0002CB8BF002D11DA012A04D031
:103B1000002018B00146BDE8F08D18B000204FF02D
:103B20000041BDE8F08DA1F14050B0F17F601AD0A6
:103B3000012000EBE47050EA020421D0624C521ED6
:103B40004FF0000B104304BF4FF0000B644C65486E
:103B500083427CDD644A654893421FDD884217DB5F
:103B6000002D25DB37E0002C00DA4AB1022A0CBF19
:103B700001204FF0FF3018B0BDE8F04DFCF7ACBEAF
:103B80000120FEF78DFF18B0BDE8F04DFEF762BFD3
:103B90004D4A8A4202DC002D0ADC1CE0814202DA36
:103BA000002D18DA04E0484B994220DD002D12DD8B
:103BB0000220FEF775FFFEF753FF05460E46002272
:103BC000534658462146FCF715FE18B066F31E0111
:103BD0002846BDE8F08D0220FEF762FFFEF748FFA1
:103BE0000A46214618B062F31E01BDE8F08D00229E
:103BF00030466146FCF7F8FD80460E466FF0010244
:103C0000FCF717FC4FF05532394BFCF7F0FD4246FC
:103C10003346FCF7EFFD0022364BFCF7E8FD824609
:103C200042463346049110461946FCF7E3FD5246DE
:103C3000049BFCF7DFFD8A4600904FF0C0422E4BFC
:103C400040463146FCF7D6FD2C4A2B4B00E027E0DE
:103C5000CDE9060151460098FCF7CCFD8246019162
:103C6000274A284B40463146FCF7C4FD5246019B8B
:103C7000FCF7BAFD82460B4602460591DDE90601D6
:103C8000FCF711FDDDE90623002688463046FCF7E7
:103C9000ABFD5246059BFCF7AAFD024600F07EB93B
:103CA0000020B1F5801F07DA352230466146FCF767
:103CB000C0FB06466FF0340000EB215024E000000A
:103CC000FFFF1F00FFFF0F000000F03F0000F07F2C
:103CD0000000404301FCFFFFF22500000000F0FF60
:103CE0000000F0BF0000E0410000F043FFFFEF3FA5
:103CF0005555D53F0000E03F4715F73FFE822B6545
:103D000044DF5DF80BAE543EA0F2FF300190C1F3EA
:103D1000130040F07F6141F040510291FE4988421A
:103D2000D8BF002004DDFD498142C8BF012001DD6C
:103D30000D9008E000200D900198401C0190029821
:103D4000A0F5801002900299F54878440B910D99E6
:103D500000EBC100D0E900230F9330460A920B9983
:103D6000FCF742FDCDE90601DDE90A2130460F9B53
:103D7000FCF799FC02460B460020EA49FCF7EAFAF8
:103D8000059102460B460090DDE90601FCF732FD85
:103D90001490E5488A464FF000087844029900687C
:103DA00012904FF0005040EA61010D980F9B01EB1B
:103DB000804000F5002109910A9A1298FCF714FD41
:103DC00032460B9BFCF713FD42465346FCF712FDAF
:103DD0000646029140465146099B129AFCF70AFD9D
:103DE000DDE90623FCF703FD3246029BFCF7FCFCF1
:103DF000059B009AFCF7FEFC0091149A0490534630
:103E000010461946FCF7F6FC06460246C7480B4624
:103E1000029106217844FEF7BDFDCDE90510029B15
:103E2000324610461946FCF7E5FCDDE90532FCF7A1
:103E3000E1FC05910646534640461946149AFCF7A4
:103E400032FC009B049AFCF7D5FC3246059BFCF73C
:103E50002AFCCDE905104246534610461946FCF7A8
:103E6000C9FC0022B24B02910A90FCF71CFCDDE970
:103E70000532FCF718FC0E464246AD4B4046FCF7B7
:103E8000B3FC029B0A9AFCF7AFFCDDE90532FCF7B4
:103E9000AEFC424602910A90334610465146FCF76A
:103EA000A9FCCDE906015346149A02990A98FCF739
:103EB000A1FC8A4602903346424600990498FCF7DA
:103EC00099FC5346029AFCF7EEFB82460B460246EB
:103ED0000591DDE90601FCF7E6FBDDE9062300209C
:103EE00088460646FCF780FC5246059BFCF77FFCA3
:103EF000824609914FF060428E4B30464146FCF7B6
:103F000079FC049006918C4A8A4B50460999FCF73B
:103F100071FC82460291894A894B30464146FCF742
:103F200069FC5246029BFCF7BEFB864B7B440D9A14
:103F300003EBC203D3E90023FCF7B5FB0E90079116
:103F40000198FCF7C9FC0591DDE9061382460E9A3B
:103F50000498FCF7A8FB7C4A7A440D9B02EBC30350
:103F6000D3E9002300930292FCF79DFB5246059B88
:103F7000FCF799FB0026884652463046059BFCF725
:103F800033FC009B029AFCF72FFC069B049AFCF77B
:103F90002BFC079B0E9AFCF72AFC024600200B46DE
:103FA000029038462946FCF725FC824601912B46B3
:103FB00038461946029AFCF717FC32464346FCF78E
:103FC00019FC5246019BFCF76EFB07468A463246B7
:103FD000434629460298FCF70DFC05460E463A4634
:103FE0005346FCF760FB594A8846914221DBA8EB17
:103FF000020353EA000210D12A463346FCF7F4FBD1
:10400000CDE90401524A534B38465146FCF74BFB6D
:10401000DDE90423FCF78AFC21D20220FEF740FDF3
:10402000FEF71EFD0A46214618B062F31E01BDE8E8
:10403000F08D494B28F000429A4210D3474A08EBD2
:10404000020353EA00027FF4C6AD2A463346FCF76A
:10405000CBFB3A465346FCF769FC7FF6BCAD002229
:10406000019228F000403E493E4A01EB2051824235
:1040700023DA481C4FF4801121FA00F040443A4AF8
:10408000C0F30A517A44394BA1F2FF31CB4020EA08
:104090000303C0F3130040F48010C1F11401C840C1
:1040A00012680190B8F1000FBCBF40420190284651
:1040B0003146FCF799FB05460E462A4633463846FC
:1040C0005146FCF7F0FA4FF000084246284B4046B4
:1040D0000591FCF78FFBCDE90601264A264B4046A9
:1040E0000599FCF787FB009102902A46334640462B
:1040F0000599FCF779FB3A465346FCF778FB1F4AD3
:104100001F4BFCF777FB009B029AFCF7CCFA0746A3
:10411000884602460B4635E08E9803007AB60B00BF
:104120003A2200000000F03F72220000A0210000AF
:104130000000084009C7EE3FFD033ADCF5015B14BF
:10414000E02F3EBE782000003C20000000009040A0
:10415000FE822B654715973C00CC904000346F3FA2
:1041600001FCFFFF0000E03F881F0000FFFF0F0081
:10417000432EE63F396CA80C615C20BEEF39FAFE95
:10418000422EE63FDDE90601FCF78DFADDE9062364
:1041900005460E46FCF728FB3A464346FCF727FB4C
:1041A0000F462A463346009010461946FCF722FB7C
:1041B000824602462E4888460B4605217844FEF783
:1041C000E9FB52464346FCF715FB2A463346FCF70B
:1041D0000EFB80468A463B4628463146009AFCF74D
:1041E00009FB3B46009AFCF75EFA0691009000221C
:1041F0004FF0804340465146FCF7F6FA0F460C90CC
:104200004246534628463146FCF7F4FA3B460C9AA0
:10421000FCF7A0F8069B009AFCF7E6FA2A4633461C
:10422000FCF7E2FA0022134BFCF7E1FA054601988D
:104230000E4601EB00510815002810DC28463146D7
:10424000019AFCF7F6F8FEF781FB042808BFFEF799
:104250000FFC28463146019AFCF7EBF805460B4661
:1042600018B02A4658462146BDE8F04DFCF7C2BAC0
:10427000281E00000000F03F2DE9F041134C0F46CE
:104280000546E6682068001D00F066FC681C07D142
:1042900037B12168BDE8F0410D48091D00F0ACBC04
:1042A00020683544B5424560216805D2A06BBDE861
:1042B000F041091D00F088BC606B091D00F084FC12
:1042C000A06A854200D2A562BDE8F08128000020E6
:1042D000C40800202DE9F041054600F099FC2D4C62
:1042E000A068401CA06020682B4F10B1606930B3FB
:1042F0002BE02560A068012827D1002606EB860068
:1043000007EB800000F052FC761C382EF6D32348D1
:1043100000F04CFC2148143000F048FC1F482830C5
:1043200000F044FC1D483C3000F040FC1B4850307D
:1043300000F03CFC194860631430A06305E020687D
:10434000E96AC06A884200D82560606A401C6062E1
:104350006864E86A2169884200D9206100EB800026
:1043600007EB8000291D00F047FC00F071FC60693C
:1043700000280CD02068E96AC06A884207D2084940
:104380004FF080500860BFF34F8FBFF36F8FBDE8D1
:10439000F081000028000020140400207408002090
:1043A00004ED00E038B500F033FC104C2068C8B9CB
:1043B0000F4800F0FBFB0E48143000F0F7FB0C48F0
:1043C000E060143020610A4B0020F03B009003F1C4
:1043D000500210210A2000F043FE206010B105A118
:1043E00000F0B8FCBDE8384000F032BC64000020AA
:1043F000C8090020546D72510000000030B4026CF6
:104400000B46002A0BD0C1681144C1608468A142E8
:1044100001D30168C16030BC1846FBF7E1BE30BC77
:1044200070472DE9F041856B174604460026026C63
:1044300082B1C7B1E068FBF7D3FEE168206C091ACE
:10444000E1602268914202D2A168081AE060022F5E
:1044500016D017E02068A8B9A06801F02FF9064629
:104460000020A0600EE06068FBF7BAFE216C606877
:1044700008446060A168884204D32068606001E05D
:1044800005B16D1E6D1CA5633046BDE8F08110B509
:10449000044690F8590058B101280CD002280FD0DA
:1044A000502080F31188BFF34F8FBFF36F8FFEE76B
:1044B000206B00F0E1FB2046BDE8104000F0DCBBC3
:1044C00010BD000010484FF44061420706D0C01DE7
:1044D0000D4920F00700411AC1F540610B4A002345
:1044E0000144C2E900030839183A21F007011160BC
:1044F0004B600B600B1AC0E9001393604FF0004053
:104500005360506170470000A81000209400002004
:10451000144E154CA6F29C474FF08058DFF84C9093
:1045200012E000BF00F074FBF068C568281D00F0C1
:1045300013FBA068401EA0606068401E606000F031
:1045400087FB2846FFF7A3FF60680028EAD1386898
:104550000128F9D9C9F80080BFF34F8FBFF36F8FDF
:10456000F2E70000B00800202800002004ED00E081
:1045700070B51D46049C51B1C4F80020C4E90F0178
:104580000121204600F0A0FD84F84C5070BD24604D
:10459000F4E700002DE9F05F8846DDE90B9415464D
:1045A000834691009A460A9EA522206BFBF72AFEBD
:1045B0006FF00301206B01EB8501084420F0070731
:1045C000780707D0502080F31188BFF34F8FBFF3D7
:1045D0006F8FFEE70025B8F1000F0FD05FF00000ED
:1045E000221818F8001082F8341018F8001011B1D1
:1045F000401C1028F4D384F8435001E084F8345070
:10460000382E00D33726E662C4E91365201D00F07A
:10461000D8FA04F1180000F0D4FA2461C6F1380089
:104620006462A061656584F8585052465946384620
:1046300000F05AFA2060B9F1000F01D0C9F800402B
:10464000BDE8F09F30B5114900E011460A6882428A
:10465000FBD34B685C18844203D14068184448601F
:10466000084643681C18944209D1084C183C246839
:10467000A24209D052681A4442600A681268026075
:10468000814200D0086030BD0460F9E7940000204A
:1046900070B5002441600B4D0061914206D8D11ADB
:1046A0008269914206D2011D286907E09A4203D22D
:1046B000994201D3012403E0011DE86800F084FA67
:1046C000204670BD6400002010B5044600F0A0FA3A
:1046D000A06B28B15FF0000400F0BAFA204610BDCC
:1046E0000124F9E730B589B03C4D6EE0049800280C
:1046F00006DADDE90601059A90470498002864DB94
:10470000069C606910B1201D00F026FA03A800F095
:10471000D7F8024604980A2857D2DFE800F00505CA
:10472000052D334A05052D3394F8280040F001008B
:1047300084F828000599A069059B01442046FFF7ED
:10474000A7FF68B3216A2046884794F828004007ED
:104750003BD5002000900598A16900234218194616
:10476000204601F0B5F8D8B9502080F31188BFF386
:104770004F8FBFF36F8FFEE714F8280F20F0010072
:10478000207022E094F8280040F0010084F828000E
:104790000598A06128B1811813462046FFF778FFDD
:1047A00013E0502080F31188BFF34F8FBFF36F8F5A
:1047B000FEE794F82800810703D4204600F05CFA55
:1047C00003E020F0010084F82800002204A92868F2
:1047D00000F0CEFD002889D109B030BD6400002072
:1047E0002DE9FC410F46054600F096FB01A800F0BC
:1047F00067F80446019818B100F0D8FFBDE8FC81C5
:10480000254EAFB130690068D0B30027291B3A4666
:10481000306800F0B3FA00F0C9FF0028EED11F495C
:104820004FF080500860BFF34F8FBFF36F8FE5E705
:10483000A542EBD800F0BAFFF0682746C068C4680C
:10484000201D00F089F994F82800410719D5A069C6
:104850002B4641193A462046FFF71AFFA8B100201F
:104860000346014600902A46204601F031F860B91F
:10487000502080F31188BFF34F8FBFF36F8FFEE797
:1048800007E020F0010084F82800216A20468847CC
:10489000B4E70127BAE700006400002004ED00E05F
:1048A0000648416B096829B1416BC968C968496804
:1048B000816270474FF0FF31FAE7000028000020C6
:1048C00070B5054600F090FE064E0446B06884427E
:1048D00003D200F009F8012000E000202860204603
:1048E000B46070BD64000020F8B5194D20E0C068C8
:1048F000C4680668201D00F02FF9216A2046884709
:1049000094F82800400713D5A0693044B04206D976
:1049100024616060211DE86800F056F908E000207D
:104920000346014600903246204600F0D1FF38B1E0
:10493000E86801680029DAD12969C5E90310F8BDE2
:10494000502080F31188BFF34F8FBFF36F8FFEE7C6
:104950006400002008484068401C4FF0500080F37D
:10496000118804D0BFF34F8FBFF36F8FFEE7BFF303
:104970004F8FBFF36F8FFEE79C000020074CE0686D
:10498000016841B1C0680021D0F80000FFF728FF9E
:10499000FFF7A8FEF3E701210020F7E764000020FD
:1049A0002DE9F041044600F033F994F9455004F143
:1049B000240609E0606A48B1304600F0BFFE08B145
:1049C00000F02CFA6D1E6DB2002DF3DC4FF0FF36B7
:1049D00084F8456000F03CF900F01AF994F944506D
:1049E00004F1100709E0206948B1384600F0A6FE3E
:1049F00008B100F013FA6D1E6DB2002DF3DC84F8DF
:104A00004460BDE8F04100F023B900002DE9F04119
:104A10000546002700F080FA324E306808B9FFF7EB
:104A200051FD706905424ED1C5B3083568070ED0F7
:104A300005F00700C0F108000544680707D05020C2
:104A400080F31188BFF34F8FBFF36F8FFEE72DB355
:104A50007068854237D82348183001460C6801E059
:104A600020460C466168A94202D221680029F7D18C
:104A700031688C4227D00768216801606068083778
:104A8000411B10290FD96019420708D0502080F32C
:104A90001188BFF34F8FBFF36F8FFEE713E04160C4
:104AA0006560FFF7CFFD61687068401A7060B2689A
:104AB000904200D2B060706901430020C4E9000157
:104AC000F068401CF06000F071FE780707D05020BD
:104AD00080F31188BFF34F8FBFF36F8FFEE7384627
:104AE000BDE8F0817C00002010B5031F4FF08074FA
:104AF0001C601B1F21F001011960191F024B0B6084
:104B0000143940380A6010BD554900082DE9F041BC
:104B100006460F46FBF755FF041E0D4618BF012041
:104B2000284320F00040C0F17F6000F1E040C00F5A
:104B30000ED0301C18BF0120384320F00040C0F1D7
:104B40007F6000F1E040C00F04BF0120FDF7A8FF27
:104B500020462946BDE8F081D0E9013201699A601A
:104B6000D0E901235A604A68824201D182684A60D2
:104B7000002202610868401E086008687047000053
:104B8000034B036003F15C000860802010607047F5
:104B9000F0090020044B036003F15C0008604FF44F
:104BA00080701060704700004C0C002000F108017C
:104BB0004FF0FF32C0E90112C160016100210160C4
:104BC000704700210161704730B50B685A1C02D054
:104BD00000F1080202E0026904E0224654682568F8
:104BE0009D42FAD953684B6099608A6051600861B0
:104BF0000168491C016030BD42684A6093688B605F
:104C000093685960916008610168491C01607047B0
:104C1000502080F31188BFF34F8FBFF36F8F0A4985
:104C20004868401C486001280CD10848006810F012
:104C3000FF0F07D0502080F31188BFF34F8FBFF3D1
:104C40006F8FFEE7704700009C00002004ED00E03D
:104C50000849486828B1401E486001D180F3118896
:104C60007047502080F31188BFF34F8FBFF36F8FD1
:104C7000FEE700009C00002070B500282AD0164DE9
:104C8000A0F1080460686969084207D1502080F3E8
:104C90001188BFF34F8FBFF36F8FFEE722683AB1E1
:104CA000502080F31188BFF34F8FBFF36F8FFEE763
:104CB0008843606000F030F96068696808446860A3
:104CC0002046FFF7BFFC2869401C2861BDE8704002
:104CD00000F06CBD70BD00007C0000204FF0E020B3
:104CE00000210161816105494FF47A720968B1FBC5
:104CF000F2F1491E41610721016170471400002053
:104D000010B5FBF747FA114910280ED300F1E02047
:104D100090F8F0030A78904207D2502080F311886F
:104D2000BFF34F8FBFF36F8FFEE7094800688968B4
:104D300000F4E060884207D9502080F31188BFF367
:104D40004F8FBFF36F8FFEE710BD00009C00002067
:104D50000CED00E010B5084B002200BF53F83240C4
:104D60001CB1521C082AF9D310BD43F8321003EBD2
:104D7000C201486010BD0000D403002070B5154684
:104D80000E460446FFF744FF94F944100020491CE6
:104D900001D184F8440094F94510491C01D184F8EC
:104DA0004500FFF755FFA06B28B92A46314604F1AC
:104DB000240000F051F82046BDE87040FFF7F0BD38
:104DC00010B5020014D00F48006B38B1502080F3AA
:104DD0001188BFF34F8FBFF36F8FFEE700F09CF891
:104DE00000211046FFF748FA00F0E0FC002807D148
:104DF00005494FF080500860BFF34F8FBFF36F8FAE
:104E000010BD00002800002004ED00E002490A6AFD
:104E10000260C968416070472800002001490120F4
:104E2000C86170472800002010B50C4650B10949F0
:104E300009681831FFF7C8FE2046BDE8104001217F
:104E4000FFF71ABA502080F31188BFF34F8FBFF3DA
:104E50006F8FFEE72800002070B514460D4668B13C
:104E60000A4909681831FFF7C7FE0CB14FF0FF354A
:104E700021462846BDE87040FFF7FEB9502080F378
:104E80001188BFF34F8FBFF36F8FFEE7280000201C
:104E900030B587B00024039405AA04A903A804949C
:104EA000FFF76EFEDDE903010094CDE90110002358
:104EB00015A11748059A00F05EFB164D0028E86220
:104EC0001FD000F0D5FC012809D0401C19D150207A
:104ED00080F31188BFF34F8FBFF36F8FFEE7502031
:104EE00080F31188BFF34F8FBFF36F8F4FF0FF3008
:104EF000A86201206861EC6007B0BDE8304000F0B6
:104F000045B807B030BD000049444C4500000000E2
:104F100011450008280000200248016B491C01636C
:104F20007047000028000020164810B5016B11B131
:104F30000121C16110BD0021C1610169124A01E076
:104F4000B9B1491E01EB810352F82330002BF7D091
:104F500001EB810302EB830202F1080453685B68F2
:104F60005360A34201D15B685360DA68026001615B
:104F700010BD502080F31188BFF34F8FBFF36F8FA8
:104F8000FEE7000028000020140400201CB526497C
:104F900008780190FF20087008788DF800009DF8CF
:104FA00000009DF8002000F0F000904207D0502053
:104FB00080F31188BFF34F8FBFF36F8FFEE79DF82B
:104FC00000001A4C00F0500020700720A06005E09F
:104FD0009DF8002052008DF80020401E9DF8002012
:104FE0001206F5D4A060032807D0502080F3118862
:104FF000BFF34F8FBFF36F8FFEE74FF44070A06099
:10500000019808700A48016841F470010160016864
:1050100041F070410160FFF761FE00206060FBF726
:1050200083F800201CBD000000E400E09C0000208C
:1050300020ED00E010B5502080F31188BFF34F8FB2
:10504000BFF36F8F00F0D6FA18B104494FF08050CB
:105050000860002080F3118810BD000004ED00E01E
:1050600038B5049D18B153B1CAB181B120E05020C8
:1050700080F31188BFF34F8FBFF36F8FFEE750208F
:1050800080F31188BFF34F8FBFF36F8FFEE750207F
:1050900080F31188BFF34F8FBFF36F8FFEE739B1F5
:1050A000502080F31188BFF34F8FBFF36F8FFEE75F
:1050B00050241C46012384F846302B460094FFF709
:1050C00057FA204638BD000070B50D46040025D0C3
:1050D000FFF79EFDD4E90F20216802FB0011A160BB
:1050E0000021A163216861600A46D4E90F01401ED6
:1050F00000FB0121E16021464FF0FF3001F8440F31
:10510000487004F110008DB1FFF750FD04F1240048
:10511000FFF74CFDFFF79CFD012070BD502080F390
:105120001188BFF34F8FBFF36F8FFEE7216900290E
:10513000F0D000F003FB0028ECD004494FF0805081
:105140000860BFF34F8FBFF36F8FE3E704ED00E01C
:105150002DE9FF4782B01D468A464FF00008040043
:1051600003D0BAF1000F08D011E0502080F311886D
:10517000BFF34F8FBFF36F8FFEE7206C38B1502025
:1051800080F31188BFF34F8FBFF36F8FFEE7022DBF
:105190000AD1E06B012807D0502080F31188BFF3BB
:1051A0004F8FBFF36F8FFEE700F010FA3F4F4FF0C5
:1051B00000094FF0805648B9049838B1502080F368
:1051C0001188BFF34F8FBFF36F8FFEE7FFF720FD0E
:1051D000A06BE16B884207D3022D05D00498D0B1B3
:1051E000B8F1000F1AD01EE02A4651462046FFF7BC
:1051F00018F9616A19B104F1240000F09FFA20B196
:105200003E60BFF34F8FBFF36F8FFFF721FD01208B
:1052100006B0BDE8F087FFF71BFD22E06846FFF708
:10522000F5FD4FF00108FFF713FDFFF775FEFFF7DF
:10523000EFFC94F94400401C01D184F8449094F9A7
:105240004500401C01D184F84590FFF701FD04A9F9
:10525000684600F029F930B12046FFF7A1FB00F0C5
:10526000A5FA0020D4E7FFF7D3FCA06BE16B8842DE
:1052700013D1FFF7EDFC04F110000499FFF7D4FD02
:105280002046FFF78DFB00F091FA00289ED13E608A
:10529000BFF34F8FBFF36F8F98E7FFF7D9FC20461E
:1052A000FFF77EFB00F082FA90E7000004ED00E0DB
:1052B0002DE9F0471F4690468946040003D0B9F116
:1052C000000F08D011E0502080F31188BFF34F8FFA
:1052D000BFF36F8FFEE7206C38B1502080F3118848
:1052E000BFF34F8FBFF36F8FFEE7022F0AD1E06B42
:1052F000012807D0502080F31188BFF34F8FBFF3F0
:105300006F8FFEE7FFF7FCFC5020EFF3118680F370
:105310001188BFF34F8FBFF36F8FA06BE16B884293
:1053200006D3022F04D0002086F31188BDE8F08751
:1053300094F94550A06B3A4649462046FFF771F86C
:10534000681C04D06D1C84F845500120ECE7606AAD
:105350000028FAD004F1240000F0F0F90028F4D07D
:10536000B8F1000FF1D00121C8F80010EDE70000FE
:105370002DE9F747002683B08A46040003D0BAF12E
:10538000000F08D011E0502080F31188BFF34F8F39
:10539000BFF36F8FFEE7206C38B1502080F3118887
:1053A000BFF34F8FBFF36F8FFEE700F00FF9DFF809
:1053B000F4804FF000094FF0805748B9059838B194
:1053C000502080F31188BFF34F8FBFF36F8FFEE73C
:1053D000FFF71EFCA56BC5B151462046FFF70EF83E
:1053E0006D1EA563206950B104F1100000F0A6F90C
:1053F00028B1C8F80070BFF34F8FBFF36F8FFFF76E
:1054000027FC012006B0BDE8F087059808B11EB161
:1054100006E0FFF71DFC27E06846FFF7F7FC0126D2
:10542000FFF716FCFFF778FDFFF7F2FB94F9440055
:10543000401C01D184F8449094F94500401C01D1EE
:1054400084F84590FFF704FC05A9684600F02CF8A5
:10545000002820460AD0FFF7A3FA00F0A7F920465B
:10546000FFF732F90028B3D00020CBE7FFF72CF983
:1054700090B104F124000599FFF7D6FC2046FFF710
:105480008FFA00F093F90028A2D1C8F80070BFF39A
:105490004F8FBFF36F8F9BE72046FFF781FA00F035
:1054A00085F995E704ED00E02DE9F0410C46050093
:1054B00011D0C4B1FFF7ACFB174BDA686E682068F7
:1054C000911B471C17D02F681B6A9F4219D0964228
:1054D00017D8012410E0502080F31188BFF34F8FBC
:1054E000BFF36F8FFEE7502080F31188BFF34F8F1B
:1054F000BFF36F8FFEE70024FFF7AAFB2046BDE84D
:10550000F081884205D9401A20602846FFF77EFCCA
:10551000F1E700202060DCE7280000202DE9FF5F94
:105520008346DDE90E87994616468A469000FFF7C6
:105530006DFA05001CD05C20FFF768FA040014D057
:105540000020256384F85900CDE90240CDE90087A9
:105550004B46324651465846FFF71CF82046FEF7A8
:10556000B9FE012004B0BDE8F09F2846FFF784FB98
:105570004FF0FF30F6E7F0B585B0DDE90B640A9D2A
:10558000A6B1DCB15C2700972663022684F8596037
:10559000002604AFCDE90246CDE90057FEF7FAFF39
:1055A0002046FEF797FE049805B0F0BD502080F32A
:1055B0001188BFF34F8FBFF36F8FFEE7502080F34A
:1055C0001188BFF34F8FBFF36F8FFEE70548416926
:1055D00019B1006B18B100207047012070470220FC
:1055E00070470000280000200148C0687047000094
:1055F000280000202DE9F0412E4C0027206B28B117
:10560000A069401CA0613846BDE8F081E668761CC0
:10561000E66013D1606B006838B1502080F31188C8
:10562000BFF34F8FBFF36F8FFEE7606BA16B6163BA
:10563000A063206A401C2062FFF732F9A06ADFF8FD
:105640007880864209D3606B0068A0B1606BC06847
:10565000C5686868864211D2A0622068C06A00EB03
:10566000800158F82100012800D90127E0690028AD
:10567000C9D00127C7E74FF0FF30EDE7281DFFF73E
:105680006BFAA86A18B105F11800FFF765FAE86A25
:105690002169884200D9206100EB800108EB81007C
:1056A000291DFFF7A9FAE86A2168C96A8842CAD3A6
:1056B0000127C8E7280000201404002070B504006A
:1056C0004FF0000133D01B4D2868844207D0502092
:1056D00080F31188BFF34F8FBFF36F8FFEE7206D0C
:1056E00038B1401E2065E36CE26A9A421FD040B197
:1056F0001DE0502080F31188BFF34F8FBFF36F8FF1
:10570000FEE7201DFFF728FAE06CE062C0F13800E8
:10571000A061E06A2969884200D92861064900EB46
:10572000800001EB8000211DFFF766FA0121084689
:1057300070BD0000280000201404002070B5C0686F
:10574000C46854B104F118000646FFF705FA144D79
:10575000286B50B13146134815E0502080F3118872
:10576000BFF34F8FBFF36F8FFEE7201DFFF7F4F9F4
:10577000E06A2969884200D928610B4900EB800062
:1057800001EB8000211DFFF737FAE06A2968C96A3A
:10579000884202D90120E86170BD002070BD000080
:1057A000280000209C080020140400202DE9F04768
:1057B0002C4D00242746286B38B1FFF729FA286BB7
:1057C000401E2863286B40B146E0502080F31188CA
:1057D000BFF34F8FBFF36F8FFEE7A968224E012002
:1057E000D1B3A6F5916980463068E0B1F068C4682D
:1057F00004F11800FFF7B0F9201DFFF7ADF9E06ADA
:105800002969884200D9286100EB800109EB8100F9
:10581000211DFFF7F1F9E06A2968C96A8842E3D3DC
:10582000C5F81C80E0E70CB1FFF73AF8AC694CB161
:105830004FEA0806FFF7DEFE00B1EE61641EF9D103
:105840000020A861E86938B10849012738070860D5
:10585000BFF34F8FBFF36F8FFFF7FAF93846BDE8FC
:10586000F0870000280000209C08002004ED00E0E4
:1058700010B586B0FEF796FD114C2068B8B1002037
:105880000390049005AA04A903A8FFF783F9DDE9B2
:10589000032102208DE8070000230AA10B48059A86
:1058A000FFF769FE606010B106B0012010BD502006
:1058B00080F31188BFF34F8FBFF36F8FFEE70000B7
:1058C00064000020546D7220537663007D49000807
:1058D0002DE9FF411E46134602000A9D4FF00000CD
:1058E00016D0144C2768002F0FD0CDE90013029278
:1058F000062917DAFFF76AFE02284FF000030FD0DF
:10590000002269462068FFF723FC04B0BDE8F0815F
:10591000502080F31188BFF34F8FBFF36F8FFEE7E6
:105920002A46EEE70023324669463846FFF7C0FCB8
:10593000EBE7000064000020186000080000000091
:105940000000000000000000000000000002000055
:105950001800000000000000000000000102020327
:105960000405060708090A0B0C0D0E0F10100102A2
:1059700002030405060708090A0B0C0D0E0F101090
:1059800000000000000000000102030406070809EF
:1059900000000000010203040000000000000000FD
:1059A0000000000000000000000000F800000000FF
:1059B000000000333000000000100C06100C060040
:1059C000000000000000000040C07840C0784000A7
:1059D000043F04043F040400007088FC0830000009
:1059E000001820FF211E0000F008F000E018000061
:1059F00000211C031E211E0000F00888700000001A
:105A00001E2123241927211010160E00000000006B
:105A10000000000000000000000000E01804020088
:105A2000000000071820400000020418E0000000F9
:105A30000040201807000000404080F080404000F7
:105A40000202010F01020200000000F0000000004D
:105A50000101011F01010100000000000000000021
:105A600080B0700000000000000000000000000096
:105A7000000101010101010100000000000000001F
:105A800000303000000000000000000080601804BA
:105A9000006018060100000000E010080810E00097
:105AA000000F102020100F00001010F80000000060
:105AB0000020203F202000000070080808887000A7
:105AC0000030282422213000003008888848300027
:105AD0000018202020110E000000C02010F8000047
